:10000000ECEF02F050574D3A0000EA6A190EE96E23
:10001000EF500DE0020E016E006A002EFED7012E99
:10002000FBD7970E006E002EFED7EF2EF3D71200EF
:1000300020B002D08C9601D08C86959620B202D04A
:100040008C9801D08C88959820B402D08C9A01D0DD
:100050008C8A959A20B602D08C9C01D08C8C959C71
:1000600000008C84959400D000D08C94959412005C
:10007000216A9586000E83B6010E21129588000E26
:1000800083B8010E006ED890003600502112958A78
:10009000000E83BA010E006E00360036FC0E00160C
:1000A00000502112958C000E83BC010E006E0036AC
:1000B00000360036F80E00160050211221C001F063
:1000C000120095869588958A958C8C829592000071
:1000D0008C8495940000CCDF01C020F08C94959422
:1000E00000008C84959400D0C3DF01C01FF08C9475
:1000F000959495969598959A959C2038006EF00E5B
:10010000001600501F10016E8CEF00F09594959032
:1001100095928C909590D5D701C01FF001BEFBD76A
:100120001D5202E18C9001D08C80959000008C9241
:10013000959200008C9495941E381F6E0F0E1F161A
:100140001FC020F075DF1E500F0B1F6E206E70DF7A
:100150001200280E0C6E0C0E0D6E010E0E6E060EA9
:100160000F6E8C9495948C9095908C929592959618
:100170009598959A959C9594959095920F0E196ED9
:1001800044DF010E0B6E0B50030808E3030E206ED4
:100190004FDF050E196E39DF0B2AF5D7020E206EE0
:1001A00047DF050E196E31DF0B6A0B5003080FE3B2
:1001B000036A0B500C0FE96E000E0320EA6EEFCFBE
:1001C00010F01D6A10C01EF0A1DF0B2AEED7F8EF69
:1001D00002F01A2C01D003D0400E1B6E01D01B6A16
:1001E000010E195C1B261B5080091C6E1D6A1E6EB9
:1001F0008DDF12001850070A07E00B0A0AE0060A12
:1002000010E0020A14E018D0010E196E1A6EE1DF38
:1002100018D01D6A010E1E6E79DF020E196EF5DE12
:1002200010D0010E196E020E1A6ED3DF0AD01D6AAD
:10023000100E1E6E6BDF05D0010E1D6E18C01EF075
:1002400065DF12000900F5520CE0F6CF0BF0F7CF96
:100250000CF0F5CF18F0CEDF0BC0F6FF0CC0F7FFA7
:10026000F1D701EF03F08E0E006E0CC001F00BC051
:1002700002F0036A015209E102C001F0026A080EAD
:10028000005E015202E1006A08D0D89001BE04D09D
:10029000023601360006F9D7019E35EF03F01850FB
:1002A000D8B471D0006E1C50D8B46DD0002604E3D1
:1002B000810E002668E204D07F0E005E64E363E0F6
:1002C00019C020F01D50201A198E1D8E1B501F02C0
:1002D000F4CF22F01A501E02F4CF03F0F3CF21F036
:1002E0001F02F3502226F4502122000E03221B503D
:1002F0001E02F3502226F4502122000E026A03222D
:10030000022219501F02F3502126F4500322000E3E
:10031000022219501E02F3500326F4500222000E4E
:10032000016A01221B501D02F3502126F4500322C2
:10033000000E022201221A501D02F3500326F4502F
:100340000222000E012219501D02F3500226F45021
:100350000122002A01BE05D02136033602360136BD
:100360000006000E21AE0AD0032A0222012201500B
:1003700005E1025003E1035001E1002A20BE018E95
:1003800020AE019E04D0006A016A026A036A12006C
:100390001850B608186E036A19C01CF0198ED89050
:1003A00019321A321B320332023201320032182E55
:1003B000F6D71CAE0BD0001E011E021E031E002A23
:1003C000D8B4012AD8B4022AD8B4032A56EF02F0CE
:1003D000D8B203D0EA6A200EE96E006A016A026AA6
:1003E000036A206A216A226A236A1F501E101D10A8
:1003F0001C102CE0200E246ED890183619361A36B0
:100400001B3620362136223623361F50235C08E166
:100410001E50225C05E11D50215C02E11C50205C55
:100420000FE31C50205E1D50D8A01D3C215E1E50C5
:10043000D8A01E3C225E1F50D8A01F3C235ED8804F
:100440000036013602360336242ED6D720C0EFFF01
:1004500021C0ECFF22C0ECFF23C0ECFF1200E950EA
:10046000106E0F50126E19E00EC01BF00DC01AF086
:100470000CC019F00BC018F01F6A1E6A200E1D6E0A
:10048000820E1C6E0CDF03C00EF002C00DF001C026
:100490000CF000C00BF0122EE7D70EC01BF00DC001
:1004A0001AF00CC019F00BC018F072D703C00EF090
:1004B00002C00DF001C00CF000C00BF00EAE0DD06C
:1004C0001006108A0B1E0C1E0D1E0E1E0B2AD8B411
:1004D0000C2AD8B40D2AD8B40E2A3B0E176E9A0EE9
:1004E000166ECA0E156E146A0A0E126E0F50D8B42C
:1004F000102AD882EA6A0B0EE96E0EC01BF00DC0FE
:100500001AF00CC019F00BC018F017C01FF016C07D
:100510001EF015C01DF014C01CF05ADF015000522F
:100520000FE10F28125C0CE010500CE00F0B125C76
:1005300001E037E210BE35D010BC04D0200E2DD023
:10054000200E101610AA0CD0109A0F50D8A4100626
:100550000050106E2D0E186E4DDE1050006E106A99
:100560000F50125C0AE10050106E2E0E186E42DE23
:100570001050006E200E1016000E300E10AA0DD076
:10058000109A0F50D8A410060050106E2D0E186E41
:1005900031DE1050006E106A300E002600C018F0D8
:1005A00029DED89217C01BF016C01AF015C019F03A
:1005B00014C018F01F6A1E6A1D6A0A0E1C6E08DF3E
:1005C00003C017F002C016F001C015F000C014F00F
:1005D000122E8FD75FEF03F0F86AD09E700ED36EA5
:1005E000D350C150C00B0F09C16E070EB46EB1D508
:1005F000010E196E1A6EEDDD040EF66E000EF76E2A
:1006000021D6000E0509CA6EF90ECB6E94948B9418
:100610000C0EBD6EB76AB66A946A8B6A000E946E51
:10062000956A8C6A956EC050C00B0109C06EC08E71
:10063000C280C150C00B0E09C16E000E016EC250C7
:10064000C30B0110C26E010E196EDFDCC282C2B292
:10065000FED7C3CF09F0C4CF0AF0010E196ED5DC66
:100660000AC00CF009C00BF0FED503C01BF002C09D
:100670001AF001C019F000C018F0C90E1F6EC80EA4
:100680001E6E480E1D6E7D0E1C6E09DE03C008F046
:1006900002C007F001C006F000C005F0050E196E9B
:1006A000010E1A6E96DD010EE96E08C00EF007C04D
:1006B0000DF006C00CF005C00BF00F6ED0D606C0D2
:1006C00002F005C001F00232013202320132023280
:1006D00001C0BEFF02320230300B006EBD50CF0BA6
:0806E0000010BD6EAAD7030053
:020000040030CA
:0E0000003FC83E1E0007A1000FC00FE00F40DA
:00000001FF
;PIC18F4550
;CRC=A75F  CREATED="05-abr.-17 06:57"
